{
  "contractName": "DGTLZ",
  "abi": [
    {
      "inputs": [],
      "stateMutability": "nonpayable",
      "type": "constructor"
    },
    {
      "anonymous": false,
      "inputs": [
        {
          "indexed": true,
          "internalType": "address",
          "name": "owner",
          "type": "address"
        },
        {
          "indexed": true,
          "internalType": "address",
          "name": "spender",
          "type": "address"
        },
        {
          "indexed": false,
          "internalType": "uint256",
          "name": "value",
          "type": "uint256"
        }
      ],
      "name": "Approval",
      "type": "event"
    },
    {
      "anonymous": false,
      "inputs": [
        {
          "indexed": true,
          "internalType": "address",
          "name": "previousOwner",
          "type": "address"
        },
        {
          "indexed": true,
          "internalType": "address",
          "name": "newOwner",
          "type": "address"
        }
      ],
      "name": "OwnershipTransferred",
      "type": "event"
    },
    {
      "anonymous": false,
      "inputs": [
        {
          "indexed": true,
          "internalType": "address",
          "name": "from",
          "type": "address"
        },
        {
          "indexed": true,
          "internalType": "address",
          "name": "to",
          "type": "address"
        },
        {
          "indexed": false,
          "internalType": "uint256",
          "name": "value",
          "type": "uint256"
        }
      ],
      "name": "Transfer",
      "type": "event"
    },
    {
      "inputs": [
        {
          "internalType": "address",
          "name": "",
          "type": "address"
        },
        {
          "internalType": "address",
          "name": "",
          "type": "address"
        }
      ],
      "name": "_allowances",
      "outputs": [
        {
          "internalType": "uint256",
          "name": "",
          "type": "uint256"
        }
      ],
      "stateMutability": "view",
      "type": "function"
    },
    {
      "inputs": [
        {
          "internalType": "address",
          "name": "",
          "type": "address"
        }
      ],
      "name": "_balances",
      "outputs": [
        {
          "internalType": "uint256",
          "name": "",
          "type": "uint256"
        }
      ],
      "stateMutability": "view",
      "type": "function"
    },
    {
      "inputs": [],
      "name": "owner",
      "outputs": [
        {
          "internalType": "address",
          "name": "",
          "type": "address"
        }
      ],
      "stateMutability": "view",
      "type": "function"
    },
    {
      "inputs": [],
      "name": "renounceOwnership",
      "outputs": [],
      "stateMutability": "nonpayable",
      "type": "function"
    },
    {
      "inputs": [
        {
          "internalType": "address",
          "name": "newOwner",
          "type": "address"
        }
      ],
      "name": "transferOwnership",
      "outputs": [],
      "stateMutability": "nonpayable",
      "type": "function"
    },
    {
      "inputs": [],
      "name": "getOwner",
      "outputs": [
        {
          "internalType": "address",
          "name": "",
          "type": "address"
        }
      ],
      "stateMutability": "view",
      "type": "function"
    },
    {
      "inputs": [],
      "name": "name",
      "outputs": [
        {
          "internalType": "string",
          "name": "",
          "type": "string"
        }
      ],
      "stateMutability": "view",
      "type": "function"
    },
    {
      "inputs": [],
      "name": "symbol",
      "outputs": [
        {
          "internalType": "string",
          "name": "",
          "type": "string"
        }
      ],
      "stateMutability": "view",
      "type": "function"
    },
    {
      "inputs": [],
      "name": "decimals",
      "outputs": [
        {
          "internalType": "uint8",
          "name": "",
          "type": "uint8"
        }
      ],
      "stateMutability": "view",
      "type": "function"
    },
    {
      "inputs": [],
      "name": "totalSupply",
      "outputs": [
        {
          "internalType": "uint256",
          "name": "",
          "type": "uint256"
        }
      ],
      "stateMutability": "view",
      "type": "function"
    },
    {
      "inputs": [
        {
          "internalType": "address",
          "name": "account",
          "type": "address"
        }
      ],
      "name": "balanceOf",
      "outputs": [
        {
          "internalType": "uint256",
          "name": "",
          "type": "uint256"
        }
      ],
      "stateMutability": "view",
      "type": "function"
    },
    {
      "inputs": [
        {
          "internalType": "address",
          "name": "recipient",
          "type": "address"
        },
        {
          "internalType": "uint256",
          "name": "amount",
          "type": "uint256"
        }
      ],
      "name": "transfer",
      "outputs": [
        {
          "internalType": "bool",
          "name": "",
          "type": "bool"
        }
      ],
      "stateMutability": "nonpayable",
      "type": "function"
    },
    {
      "inputs": [
        {
          "internalType": "address",
          "name": "owner",
          "type": "address"
        },
        {
          "internalType": "address",
          "name": "spender",
          "type": "address"
        }
      ],
      "name": "allowance",
      "outputs": [
        {
          "internalType": "uint256",
          "name": "",
          "type": "uint256"
        }
      ],
      "stateMutability": "view",
      "type": "function"
    },
    {
      "inputs": [
        {
          "internalType": "address",
          "name": "spender",
          "type": "address"
        },
        {
          "internalType": "uint256",
          "name": "amount",
          "type": "uint256"
        }
      ],
      "name": "approve",
      "outputs": [
        {
          "internalType": "bool",
          "name": "",
          "type": "bool"
        }
      ],
      "stateMutability": "nonpayable",
      "type": "function"
    },
    {
      "inputs": [
        {
          "internalType": "address",
          "name": "sender",
          "type": "address"
        },
        {
          "internalType": "address",
          "name": "recipient",
          "type": "address"
        },
        {
          "internalType": "uint256",
          "name": "amount",
          "type": "uint256"
        }
      ],
      "name": "transferFrom",
      "outputs": [
        {
          "internalType": "bool",
          "name": "",
          "type": "bool"
        }
      ],
      "stateMutability": "nonpayable",
      "type": "function"
    }
  ],
  "bytecode": "0x60806040523480156200001157600080fd5b506200003262000026620001b060201b60201c565b620001b860201b60201c565b6040518060400160405280601181526020017f50616c657374696e69616e2044696e6172000000000000000000000000000000815250600690805190602001906200007f9291906200027c565b506040518060400160405280600281526020017f504400000000000000000000000000000000000000000000000000000000000081525060059080519060200190620000cd9291906200027c565b506008600460006101000a81548160ff021916908360ff1602179055506808c57926016d40ed00600381905550600354600160003373ffffffffffffffffffffffffffffffffffffffff1673ffffffffffffffffffffffffffffffffffffffff168152602001908152602001600020819055503373ffffffffffffffffffffffffffffffffffffffff16600073ffffffffffffffffffffffffffffffffffffffff167fddf252ad1be2c89b69c2b068fc378daa952ba7f163c4a11628f55a4df523b3ef600354604051620001a2919062000347565b60405180910390a3620003c9565b600033905090565b60008060009054906101000a900473ffffffffffffffffffffffffffffffffffffffff169050816000806101000a81548173ffffffffffffffffffffffffffffffffffffffff021916908373ffffffffffffffffffffffffffffffffffffffff1602179055508173ffffffffffffffffffffffffffffffffffffffff168173ffffffffffffffffffffffffffffffffffffffff167f8be0079c531659141344cd1fd0a4f28419497f9722a3daafe3b4186f6b6457e060405160405180910390a35050565b8280546200028a9062000393565b90600052602060002090601f016020900481019282620002ae5760008555620002fa565b82601f10620002c957805160ff1916838001178555620002fa565b82800160010185558215620002fa579182015b82811115620002f9578251825591602001919060010190620002dc565b5b5090506200030991906200030d565b5090565b5b80821115620003285760008160009055506001016200030e565b5090565b6000819050919050565b62000341816200032c565b82525050565b60006020820190506200035e600083018462000336565b92915050565b7f4e487b7100000000000000000000000000000000000000000000000000000000600052602260045260246000fd5b60006002820490506001821680620003ac57607f821691505b60208210811415620003c357620003c262000364565b5b50919050565b6116a780620003d96000396000f3fe608060405234801561001057600080fd5b50600436106100f55760003560e01c806370a082311161009757806395d89b411161006657806395d89b411461028a578063a9059cbb146102a8578063dd62ed3e146102d8578063f2fde38b14610308576100f5565b806370a0823114610214578063715018a614610244578063893d20e81461024e5780638da5cb5b1461026c576100f5565b806318160ddd116100d357806318160ddd1461017857806323b872dd14610196578063313ce567146101c65780636ebcf607146101e4576100f5565b8063024c2ddd146100fa57806306fdde031461012a578063095ea7b314610148575b600080fd5b610114600480360381019061010f9190610e8d565b610324565b6040516101219190610ee6565b60405180910390f35b610132610349565b60405161013f9190610f9a565b60405180910390f35b610162600480360381019061015d9190610fe8565b6103db565b60405161016f9190611043565b60405180910390f35b6101806103f9565b60405161018d9190610ee6565b60405180910390f35b6101b060048036038101906101ab919061105e565b610403565b6040516101bd9190611043565b60405180910390f35b6101ce6104dc565b6040516101db91906110cd565b60405180910390f35b6101fe60048036038101906101f991906110e8565b6104f3565b60405161020b9190610ee6565b60405180910390f35b61022e600480360381019061022991906110e8565b61050b565b60405161023b9190610ee6565b60405180910390f35b61024c610554565b005b6102566105dc565b6040516102639190611124565b60405180910390f35b6102746105eb565b6040516102819190611124565b60405180910390f35b610292610614565b60405161029f9190610f9a565b60405180910390f35b6102c260048036038101906102bd9190610fe8565b6106a6565b6040516102cf9190611043565b60405180910390f35b6102f260048036038101906102ed9190610e8d565b6106c4565b6040516102ff9190610ee6565b60405180910390f35b610322600480360381019061031d91906110e8565b61074b565b005b6002602052816000526040600020602052806000526040600020600091509150505481565b6060600680546103589061116e565b80601f01602080910402602001604051908101604052809291908181526020018280546103849061116e565b80156103d15780601f106103a6576101008083540402835291602001916103d1565b820191906000526020600020905b8154815290600101906020018083116103b457829003601f168201915b5050505050905090565b60006103ef6103e8610843565b848461084b565b6001905092915050565b6000600354905090565b6000610410848484610a16565b6104d18461041c610843565b6104cc8560405180606001604052806034815260200161163e60349139600260008b73ffffffffffffffffffffffffffffffffffffffff1673ffffffffffffffffffffffffffffffffffffffff1681526020019081526020016000206000610482610843565b73ffffffffffffffffffffffffffffffffffffffff1673ffffffffffffffffffffffffffffffffffffffff16815260200190815260200160002054610ca49092919063ffffffff16565b61084b565b600190509392505050565b6000600460009054906101000a900460ff16905090565b60016020528060005260406000206000915090505481565b6000600160008373ffffffffffffffffffffffffffffffffffffffff1673ffffffffffffffffffffffffffffffffffffffff168152602001908152602001600020549050919050565b61055c610843565b73ffffffffffffffffffffffffffffffffffffffff1661057a6105eb565b73ffffffffffffffffffffffffffffffffffffffff16146105d0576040517f08c379a00000000000000000000000000000000000000000000000000000000081526004016105c7906111ec565b60405180910390fd5b6105da6000610d08565b565b60006105e66105eb565b905090565b60008060009054906101000a900473ffffffffffffffffffffffffffffffffffffffff16905090565b6060600580546106239061116e565b80601f016020809104026020016040519081016040528092919081815260200182805461064f9061116e565b801561069c5780601f106106715761010080835404028352916020019161069c565b820191906000526020600020905b81548152906001019060200180831161067f57829003601f168201915b5050505050905090565b60006106ba6106b3610843565b8484610a16565b6001905092915050565b6000600260008473ffffffffffffffffffffffffffffffffffffffff1673ffffffffffffffffffffffffffffffffffffffff16815260200190815260200160002060008373ffffffffffffffffffffffffffffffffffffffff1673ffffffffffffffffffffffffffffffffffffffff16815260200190815260200160002054905092915050565b610753610843565b73ffffffffffffffffffffffffffffffffffffffff166107716105eb565b73ffffffffffffffffffffffffffffffffffffffff16146107c7576040517f08c379a00000000000000000000000000000000000000000000000000000000081526004016107be906111ec565b60405180910390fd5b600073ffffffffffffffffffffffffffffffffffffffff168173ffffffffffffffffffffffffffffffffffffffff161415610837576040517f08c379a000000000000000000000000000000000000000000000000000000000815260040161082e9061127e565b60405180910390fd5b61084081610d08565b50565b600033905090565b600073ffffffffffffffffffffffffffffffffffffffff168373ffffffffffffffffffffffffffffffffffffffff1614156108bb576040517f08c379a00000000000000000000000000000000000000000000000000000000081526004016108b290611310565b60405180910390fd5b600073ffffffffffffffffffffffffffffffffffffffff168273ffffffffffffffffffffffffffffffffffffffff16141561092b576040517f08c379a0000000000000000000000000000000000000000000000000000000008152600401610922906113a2565b60405180910390fd5b80600260008573ffffffffffffffffffffffffffffffffffffffff1673ffffffffffffffffffffffffffffffffffffffff16815260200190815260200160002060008473ffffffffffffffffffffffffffffffffffffffff1673ffffffffffffffffffffffffffffffffffffffff168152602001908152602001600020819055508173ffffffffffffffffffffffffffffffffffffffff168373ffffffffffffffffffffffffffffffffffffffff167f8c5be1e5ebec7d5bd14f71427d1e84f3dd0314c0f7b2291e5b200ac8c7c3b92583604051610a099190610ee6565b60405180910390a3505050565b600073ffffffffffffffffffffffffffffffffffffffff168373ffffffffffffffffffffffffffffffffffffffff161415610a86576040517f08c379a0000000000000000000000000000000000000000000000000000000008152600401610a7d90611434565b60405180910390fd5b600073ffffffffffffffffffffffffffffffffffffffff168273ffffffffffffffffffffffffffffffffffffffff161415610af6576040517f08c379a0000000000000000000000000000000000000000000000000000000008152600401610aed906114c6565b60405180910390fd5b610b628160405180606001604052806032815260200161160c60329139600160008773ffffffffffffffffffffffffffffffffffffffff1673ffffffffffffffffffffffffffffffffffffffff16815260200190815260200160002054610ca49092919063ffffffff16565b600160008573ffffffffffffffffffffffffffffffffffffffff1673ffffffffffffffffffffffffffffffffffffffff16815260200190815260200160002081905550610bf781600160008573ffffffffffffffffffffffffffffffffffffffff1673ffffffffffffffffffffffffffffffffffffffff16815260200190815260200160002054610dcc90919063ffffffff16565b600160008473ffffffffffffffffffffffffffffffffffffffff1673ffffffffffffffffffffffffffffffffffffffff168152602001908152602001600020819055508173ffffffffffffffffffffffffffffffffffffffff168373ffffffffffffffffffffffffffffffffffffffff167fddf252ad1be2c89b69c2b068fc378daa952ba7f163c4a11628f55a4df523b3ef83604051610c979190610ee6565b60405180910390a3505050565b6000838311158290610cec576040517f08c379a0000000000000000000000000000000000000000000000000000000008152600401610ce39190610f9a565b60405180910390fd5b5060008385610cfb9190611515565b9050809150509392505050565b60008060009054906101000a900473ffffffffffffffffffffffffffffffffffffffff169050816000806101000a81548173ffffffffffffffffffffffffffffffffffffffff021916908373ffffffffffffffffffffffffffffffffffffffff1602179055508173ffffffffffffffffffffffffffffffffffffffff168173ffffffffffffffffffffffffffffffffffffffff167f8be0079c531659141344cd1fd0a4f28419497f9722a3daafe3b4186f6b6457e060405160405180910390a35050565b6000808284610ddb9190611549565b905083811015610e20576040517f08c379a0000000000000000000000000000000000000000000000000000000008152600401610e17906115eb565b60405180910390fd5b8091505092915050565b600080fd5b600073ffffffffffffffffffffffffffffffffffffffff82169050919050565b6000610e5a82610e2f565b9050919050565b610e6a81610e4f565b8114610e7557600080fd5b50565b600081359050610e8781610e61565b92915050565b60008060408385031215610ea457610ea3610e2a565b5b6000610eb285828601610e78565b9250506020610ec385828601610e78565b9150509250929050565b6000819050919050565b610ee081610ecd565b82525050565b6000602082019050610efb6000830184610ed7565b92915050565b600081519050919050565b600082825260208201905092915050565b60005b83811015610f3b578082015181840152602081019050610f20565b83811115610f4a576000848401525b50505050565b6000601f19601f8301169050919050565b6000610f6c82610f01565b610f768185610f0c565b9350610f86818560208601610f1d565b610f8f81610f50565b840191505092915050565b60006020820190508181036000830152610fb48184610f61565b905092915050565b610fc581610ecd565b8114610fd057600080fd5b50565b600081359050610fe281610fbc565b92915050565b60008060408385031215610fff57610ffe610e2a565b5b600061100d85828601610e78565b925050602061101e85828601610fd3565b9150509250929050565b60008115159050919050565b61103d81611028565b82525050565b60006020820190506110586000830184611034565b92915050565b60008060006060848603121561107757611076610e2a565b5b600061108586828701610e78565b935050602061109686828701610e78565b92505060406110a786828701610fd3565b9150509250925092565b600060ff82169050919050565b6110c7816110b1565b82525050565b60006020820190506110e260008301846110be565b92915050565b6000602082840312156110fe576110fd610e2a565b5b600061110c84828501610e78565b91505092915050565b61111e81610e4f565b82525050565b60006020820190506111396000830184611115565b92915050565b7f4e487b7100000000000000000000000000000000000000000000000000000000600052602260045260246000fd5b6000600282049050600182168061118657607f821691505b6020821081141561119a5761119961113f565b5b50919050565b7f4f776e61626c653a2063616c6c6572206973206e6f7420746865206f776e6572600082015250565b60006111d6602083610f0c565b91506111e1826111a0565b602082019050919050565b60006020820190508181036000830152611205816111c9565b9050919050565b7f4f776e61626c653a206e6577206f776e657220697320746865207a65726f206160008201527f6464726573730000000000000000000000000000000000000000000000000000602082015250565b6000611268602683610f0c565b91506112738261120c565b604082019050919050565b600060208201905081810360008301526112978161125b565b9050919050565b7f4245503230206f722061732045524332303a20617070726f76652066726f6d2060008201527f746865207a65726f206164647265737300000000000000000000000000000000602082015250565b60006112fa603083610f0c565b91506113058261129e565b604082019050919050565b60006020820190508181036000830152611329816112ed565b9050919050565b7f4245503230206f722061732045524332303a20617070726f766520746f20746860008201527f65207a65726f2061646472657373000000000000000000000000000000000000602082015250565b600061138c602e83610f0c565b915061139782611330565b604082019050919050565b600060208201905081810360008301526113bb8161137f565b9050919050565b7f4245503230206f722061732045524332303a207472616e736665722066726f6d60008201527f20746865207a65726f2061646472657373000000000000000000000000000000602082015250565b600061141e603183610f0c565b9150611429826113c2565b604082019050919050565b6000602082019050818103600083015261144d81611411565b9050919050565b7f4245503230206f722061732045524332303a207472616e7366657220746f207460008201527f6865207a65726f20616464726573730000000000000000000000000000000000602082015250565b60006114b0602f83610f0c565b91506114bb82611454565b604082019050919050565b600060208201905081810360008301526114df816114a3565b9050919050565b7f4e487b7100000000000000000000000000000000000000000000000000000000600052601160045260246000fd5b600061152082610ecd565b915061152b83610ecd565b92508282101561153e5761153d6114e6565b5b828203905092915050565b600061155482610ecd565b915061155f83610ecd565b9250827fffffffffffffffffffffffffffffffffffffffffffffffffffffffffffffffff03821115611594576115936114e6565b5b828201905092915050565b7f536166654d6174683a206164646974696f6e206f766572666c6f770000000000600082015250565b60006115d5601b83610f0c565b91506115e08261159f565b602082019050919050565b60006020820190508181036000830152611604816115c8565b905091905056fe4245503230206f722061732045524332303a207472616e7366657220616d6f756e7420657863656564732062616c616e63654245503230206f722061732045524332303a207472616e7366657220616d6f756e74206578636565647320616c6c6f77616e6365a26469706673582212201238bde1dadea15b218a5f0524f83a48dd1f917c52a96072396e0bbae65367fc64736f6c634300080a0033",
  "immutableReferences": {},
  "source": "// Developer: Patrick Developes\n// Description: Updated Smart Contract\n// Tools: Solidity and Truffle\n// SPDX-License-Identifier: MIT\n\npragma solidity ^0.8.0;\n\nimport \"./utils/Interface.sol\";\nimport \"./utils/SafeMath.sol\";\nimport \"./utils/Ownable.sol\";\n\ncontract DGTLZ is IBEP20, Ownable {\n    using SafeMath for uint256;\n\n    mapping(address => uint256) public _balances;\n    mapping(address => mapping(address => uint256)) public _allowances;\n\n    uint256 private _totalSupply;\n    uint8 private _decimals;\n    string private _symbol;\n    string private _name;\n\n    constructor() {\n        _name = \"Palestinian Dinar\";\n        _symbol = \"PD\";\n        _decimals = 8;\n        _totalSupply = 161803398874900000000;\n        _balances[msg.sender] = _totalSupply;\n\n        emit Transfer(address(0), msg.sender, _totalSupply);\n    }\n\n    function getOwner() public view returns (address) {\n        return owner();\n    }\n\n    function name() public view returns (string memory) {\n        return _name;\n    }\n\n    function symbol() public view returns (string memory) {\n        return _symbol;\n    }\n\n    function decimals() public view returns (uint8) {\n        return _decimals;\n    }\n\n    function totalSupply() public view returns (uint256) {\n        return _totalSupply;\n    }\n\n    function balanceOf(address account) public view returns (uint256) {\n        return _balances[account];\n    }\n\n    function transfer(address recipient, uint256 amount)\n        external\n        returns (bool)\n    {\n        _transfer(_msgSender(), recipient, amount);\n        return true;\n    }\n\n    function _transfer(\n        address sender,\n        address recipient,\n        uint256 amount\n    ) internal {\n        require(sender != address(0), \"BEP20 or as ERC20: transfer from the zero address\");\n        require(recipient != address(0), \"BEP20 or as ERC20: transfer to the zero address\");\n\n        _balances[sender] = _balances[sender].sub(\n            amount,\n            \"BEP20 or as ERC20: transfer amount exceeds balance\"\n        );\n        _balances[recipient] = _balances[recipient].add(amount);\n        emit Transfer(sender, recipient, amount);\n    }\n\n    function allowance(address owner, address spender)\n        public\n        view\n        returns (uint256)\n    {\n        return _allowances[owner][spender];\n    }\n\n    function approve(address spender, uint256 amount) external returns (bool) {\n        _approve(_msgSender(), spender, amount);\n        return true;\n    }\n\n    function _approve(\n        address owner,\n        address spender,\n        uint256 amount\n    ) internal {\n        require(owner != address(0), \"BEP20 or as ERC20: approve from the zero address\");\n        require(spender != address(0), \"BEP20 or as ERC20: approve to the zero address\");\n\n        _allowances[owner][spender] = amount;\n        emit Approval(owner, spender, amount);\n    }\n\n    function transferFrom(\n        address sender,\n        address recipient,\n        uint256 amount\n    ) external returns (bool) {\n        _transfer(sender, recipient, amount);\n        _approve(\n            sender,\n            _msgSender(),\n            _allowances[sender][_msgSender()].sub(\n                amount,\n                \"BEP20 or as ERC20: transfer amount exceeds allowance\"\n            )\n        );\n        return true;\n    }\n}\n",
  "sourcePath": "/Users/dev/Desktop/Freelancing $600/DGTLZ/backend/contracts/palestinian-dinar.sol",
  "compiler": {
    "name": "solc",
    "version": "0.8.10+commit.fc410830.Emscripten.clang"
  },
  "schemaVersion": "3.4.4",
  "updatedAt": "2022-01-06T08:10:59.760Z",
  "devdoc": {
    "kind": "dev",
    "methods": {},
    "version": 1
  },
  "userdoc": {
    "kind": "user",
    "methods": {},
    "version": 1
  }
}